{
  "contractName": "QuestionBank",
  "abi": [
    {
      "inputs": [
        {
          "internalType": "uint256",
          "name": "_questions",
          "type": "uint256"
        },
        {
          "internalType": "uint256",
          "name": "_totalQuestions",
          "type": "uint256"
        }
      ],
      "stateMutability": "nonpayable",
      "type": "constructor"
    },
    {
      "inputs": [],
      "name": "requiredQuestions",
      "outputs": [
        {
          "internalType": "uint256",
          "name": "",
          "type": "uint256"
        }
      ],
      "stateMutability": "view",
      "type": "function",
      "constant": true
    },
    {
      "inputs": [],
      "name": "totalQuestions",
      "outputs": [
        {
          "internalType": "uint256",
          "name": "",
          "type": "uint256"
        }
      ],
      "stateMutability": "view",
      "type": "function",
      "constant": true
    },
    {
      "inputs": [],
      "name": "pushQuestions",
      "outputs": [],
      "stateMutability": "nonpayable",
      "type": "function"
    },
    {
      "inputs": [
        {
          "internalType": "uint256",
          "name": "index",
          "type": "uint256"
        }
      ],
      "name": "returnQuestion",
      "outputs": [
        {
          "internalType": "uint256",
          "name": "",
          "type": "uint256"
        }
      ],
      "stateMutability": "view",
      "type": "function",
      "constant": true
    }
  ],
  "bytecode": "0x6080604052600060045534801561001557600080fd5b5060405161059038038061059083398181016040528101906100379190610087565b816000819055508060018190555050506100c7565b600080fd5b6000819050919050565b61006481610051565b811461006f57600080fd5b50565b6000815190506100818161005b565b92915050565b6000806040838503121561009e5761009d61004c565b5b60006100ac85828601610072565b92505060206100bd85828601610072565b9150509250929050565b6104ba806100d66000396000f3fe608060405234801561001057600080fd5b506004361061004c5760003560e01c80633b02822c14610051578063a040959314610081578063bea5b9141461008b578063f419451b146100a9575b600080fd5b61006b6004803603810190610066919061024f565b6100c7565b604051610078919061028b565b60405180910390f35b6100896100f2565b005b610093610125565b6040516100a0919061028b565b60405180910390f35b6100b161012b565b6040516100be919061028b565b60405180910390f35b6000600260000182815481106100e0576100df6102a6565b5b90600052602060002001549050919050565b5b6000546002600001805490501015610123576000610112600154610131565b905061011d8161018d565b506100f3565b565b60015481565b60005481565b60006004600081548092919061014690610304565b9190505550814233600454604051602001610163939291906103e7565b6040516020818303038152906040528051906020012060001c6101869190610453565b9050919050565b6002600101600082815260200190815260200160002060009054906101000a900460ff1661021157600260000181908060018154018082558091505060019003906000526020600020016000909190919091505560016002600101600083815260200190815260200160002060006101000a81548160ff0219169083151502179055505b50565b600080fd5b6000819050919050565b61022c81610219565b811461023757600080fd5b50565b60008135905061024981610223565b92915050565b60006020828403121561026557610264610214565b5b60006102738482850161023a565b91505092915050565b61028581610219565b82525050565b60006020820190506102a0600083018461027c565b92915050565b7f4e487b7100000000000000000000000000000000000000000000000000000000600052603260045260246000fd5b7f4e487b7100000000000000000000000000000000000000000000000000000000600052601160045260246000fd5b600061030f82610219565b91507fffffffffffffffffffffffffffffffffffffffffffffffffffffffffffffffff8203610341576103406102d5565b5b600182019050919050565b6000819050919050565b61036761036282610219565b61034c565b82525050565b600073ffffffffffffffffffffffffffffffffffffffff82169050919050565b60006103988261036d565b9050919050565b60008160601b9050919050565b60006103b78261039f565b9050919050565b60006103c9826103ac565b9050919050565b6103e16103dc8261038d565b6103be565b82525050565b60006103f38286610356565b60208201915061040382856103d0565b6014820191506104138284610356565b602082019150819050949350505050565b7f4e487b7100000000000000000000000000000000000000000000000000000000600052601260045260246000fd5b600061045e82610219565b915061046983610219565b92508261047957610478610424565b5b82820690509291505056fea2646970667358221220581e9894c5102bf771a0199bf71fea4495ac5c87c4a84b6d119daa71f39db9ae64736f6c63430008110033",
  "immutableReferences": {},
  "source": "// SPDX-License-Identifier: MIT\r\npragma solidity >=0.7.0 <0.9.0;\r\n\r\ncontract QuestionBank {\r\n    struct Set {\r\n        uint[] values;\r\n        mapping (uint => bool) is_in;\r\n    }\r\n    uint public requiredQuestions;\r\n    uint public totalQuestions;\r\n    constructor (uint _questions, uint _totalQuestions) {\r\n        requiredQuestions = _questions;\r\n        totalQuestions = _totalQuestions;\r\n    }\r\n    Set generated_set;\r\n    uint randNonce = 0;\r\n\r\n    function add(uint a) private {\r\n        if (!generated_set.is_in[a]) {\r\n            generated_set.values.push(a);\r\n            generated_set.is_in[a] = true;\r\n        }\r\n    }\r\n\r\n    function random(uint _modulus) internal returns(uint){\r\n        randNonce++; \r\n        return uint(keccak256(abi.encodePacked(block.timestamp, msg.sender,randNonce))) % _modulus;\r\n    }\r\n    \r\n\r\n    function pushQuestions() public {\r\n        while(generated_set.values.length < requiredQuestions){\r\n            uint random_int = random(totalQuestions);\r\n            add(random_int);\r\n        }\r\n    }\r\n\r\n    function returnQuestion (uint index) public view returns (uint){\r\n        return generated_set.values[index];\r\n    }\r\n}",
  "sourcePath": "C:\\Users\\Lenovo\\Desktop\\question-app\\contracts\\QuestionBank.sol",
  "compiler": {
    "name": "solc",
    "version": "0.8.17+commit.8df45f5f.Emscripten.clang"
  },
  "schemaVersion": "3.4.11",
  "updatedAt": "2023-01-25T16:15:45.969Z",
  "networkType": "ethereum",
  "devdoc": {
    "kind": "dev",
    "methods": {},
    "version": 1
  },
  "userdoc": {
    "kind": "user",
    "methods": {},
    "version": 1
  }
}